{
  "_format": "hh-sol-artifact-1",
  "contractName": "NFTMarketplace",
  "sourceName": "contracts/NFTMarketplace.sol",
  "abi": [
    {
      "inputs": [],
      "stateMutability": "nonpayable",
      "type": "constructor"
    },
    {
      "anonymous": false,
      "inputs": [
        {
          "indexed": true,
          "internalType": "address",
          "name": "owner",
          "type": "address"
        },
        {
          "indexed": true,
          "internalType": "address",
          "name": "approved",
          "type": "address"
        },
        {
          "indexed": true,
          "internalType": "uint256",
          "name": "tokenId",
          "type": "uint256"
        }
      ],
      "name": "Approval",
      "type": "event"
    },
    {
      "anonymous": false,
      "inputs": [
        {
          "indexed": true,
          "internalType": "address",
          "name": "owner",
          "type": "address"
        },
        {
          "indexed": true,
          "internalType": "address",
          "name": "operator",
          "type": "address"
        },
        {
          "indexed": false,
          "internalType": "bool",
          "name": "approved",
          "type": "bool"
        }
      ],
      "name": "ApprovalForAll",
      "type": "event"
    },
    {
      "anonymous": false,
      "inputs": [
        {
          "indexed": true,
          "internalType": "uint256",
          "name": "tokenId",
          "type": "uint256"
        },
        {
          "indexed": false,
          "internalType": "address",
          "name": "owner",
          "type": "address"
        },
        {
          "indexed": false,
          "internalType": "address",
          "name": "seller",
          "type": "address"
        },
        {
          "indexed": false,
          "internalType": "uint256",
          "name": "price",
          "type": "uint256"
        },
        {
          "indexed": false,
          "internalType": "bool",
          "name": "currentlyListed",
          "type": "bool"
        }
      ],
      "name": "TokenListedSuccess",
      "type": "event"
    },
    {
      "anonymous": false,
      "inputs": [
        {
          "indexed": true,
          "internalType": "address",
          "name": "from",
          "type": "address"
        },
        {
          "indexed": true,
          "internalType": "address",
          "name": "to",
          "type": "address"
        },
        {
          "indexed": true,
          "internalType": "uint256",
          "name": "tokenId",
          "type": "uint256"
        }
      ],
      "name": "Transfer",
      "type": "event"
    },
    {
      "inputs": [
        {
          "internalType": "address",
          "name": "to",
          "type": "address"
        },
        {
          "internalType": "uint256",
          "name": "tokenId",
          "type": "uint256"
        }
      ],
      "name": "approve",
      "outputs": [],
      "stateMutability": "nonpayable",
      "type": "function"
    },
    {
      "inputs": [
        {
          "internalType": "address",
          "name": "owner",
          "type": "address"
        }
      ],
      "name": "balanceOf",
      "outputs": [
        {
          "internalType": "uint256",
          "name": "",
          "type": "uint256"
        }
      ],
      "stateMutability": "view",
      "type": "function"
    },
    {
      "inputs": [
        {
          "internalType": "string",
          "name": "name",
          "type": "string"
        },
        {
          "internalType": "string",
          "name": "description",
          "type": "string"
        },
        {
          "internalType": "string",
          "name": "imageURL",
          "type": "string"
        },
        {
          "internalType": "uint256",
          "name": "price",
          "type": "uint256"
        }
      ],
      "name": "createToken",
      "outputs": [
        {
          "internalType": "uint256",
          "name": "",
          "type": "uint256"
        }
      ],
      "stateMutability": "payable",
      "type": "function"
    },
    {
      "inputs": [
        {
          "internalType": "uint256",
          "name": "tokenId",
          "type": "uint256"
        }
      ],
      "name": "executeSale",
      "outputs": [],
      "stateMutability": "payable",
      "type": "function"
    },
    {
      "inputs": [],
      "name": "getAllNFTs",
      "outputs": [
        {
          "components": [
            {
              "internalType": "uint256",
              "name": "tokenId",
              "type": "uint256"
            },
            {
              "internalType": "address payable",
              "name": "owner",
              "type": "address"
            },
            {
              "internalType": "address payable",
              "name": "seller",
              "type": "address"
            },
            {
              "internalType": "uint256",
              "name": "price",
              "type": "uint256"
            },
            {
              "internalType": "bool",
              "name": "currentlyListed",
              "type": "bool"
            }
          ],
          "internalType": "struct NFTMarketplace.ListedToken[]",
          "name": "",
          "type": "tuple[]"
        }
      ],
      "stateMutability": "view",
      "type": "function"
    },
    {
      "inputs": [
        {
          "internalType": "uint256",
          "name": "tokenId",
          "type": "uint256"
        }
      ],
      "name": "getApproved",
      "outputs": [
        {
          "internalType": "address",
          "name": "",
          "type": "address"
        }
      ],
      "stateMutability": "view",
      "type": "function"
    },
    {
      "inputs": [],
      "name": "getCurrentToken",
      "outputs": [
        {
          "internalType": "uint256",
          "name": "",
          "type": "uint256"
        }
      ],
      "stateMutability": "view",
      "type": "function"
    },
    {
      "inputs": [],
      "name": "getLatestIdToListedToken",
      "outputs": [
        {
          "components": [
            {
              "internalType": "uint256",
              "name": "tokenId",
              "type": "uint256"
            },
            {
              "internalType": "address payable",
              "name": "owner",
              "type": "address"
            },
            {
              "internalType": "address payable",
              "name": "seller",
              "type": "address"
            },
            {
              "internalType": "uint256",
              "name": "price",
              "type": "uint256"
            },
            {
              "internalType": "bool",
              "name": "currentlyListed",
              "type": "bool"
            }
          ],
          "internalType": "struct NFTMarketplace.ListedToken",
          "name": "",
          "type": "tuple"
        }
      ],
      "stateMutability": "view",
      "type": "function"
    },
    {
      "inputs": [],
      "name": "getListPrice",
      "outputs": [
        {
          "internalType": "uint256",
          "name": "",
          "type": "uint256"
        }
      ],
      "stateMutability": "view",
      "type": "function"
    },
    {
      "inputs": [
        {
          "internalType": "uint256",
          "name": "tokenId",
          "type": "uint256"
        }
      ],
      "name": "getListedTokenForId",
      "outputs": [
        {
          "components": [
            {
              "internalType": "uint256",
              "name": "tokenId",
              "type": "uint256"
            },
            {
              "internalType": "address payable",
              "name": "owner",
              "type": "address"
            },
            {
              "internalType": "address payable",
              "name": "seller",
              "type": "address"
            },
            {
              "internalType": "uint256",
              "name": "price",
              "type": "uint256"
            },
            {
              "internalType": "bool",
              "name": "currentlyListed",
              "type": "bool"
            }
          ],
          "internalType": "struct NFTMarketplace.ListedToken",
          "name": "",
          "type": "tuple"
        }
      ],
      "stateMutability": "view",
      "type": "function"
    },
    {
      "inputs": [],
      "name": "getMyNFTs",
      "outputs": [
        {
          "components": [
            {
              "internalType": "uint256",
              "name": "tokenId",
              "type": "uint256"
            },
            {
              "internalType": "address payable",
              "name": "owner",
              "type": "address"
            },
            {
              "internalType": "address payable",
              "name": "seller",
              "type": "address"
            },
            {
              "internalType": "uint256",
              "name": "price",
              "type": "uint256"
            },
            {
              "internalType": "bool",
              "name": "currentlyListed",
              "type": "bool"
            }
          ],
          "internalType": "struct NFTMarketplace.ListedToken[]",
          "name": "",
          "type": "tuple[]"
        }
      ],
      "stateMutability": "view",
      "type": "function"
    },
    {
      "inputs": [
        {
          "internalType": "address",
          "name": "owner",
          "type": "address"
        },
        {
          "internalType": "address",
          "name": "operator",
          "type": "address"
        }
      ],
      "name": "isApprovedForAll",
      "outputs": [
        {
          "internalType": "bool",
          "name": "",
          "type": "bool"
        }
      ],
      "stateMutability": "view",
      "type": "function"
    },
    {
      "inputs": [],
      "name": "name",
      "outputs": [
        {
          "internalType": "string",
          "name": "",
          "type": "string"
        }
      ],
      "stateMutability": "view",
      "type": "function"
    },
    {
      "inputs": [
        {
          "internalType": "uint256",
          "name": "tokenId",
          "type": "uint256"
        }
      ],
      "name": "ownerOf",
      "outputs": [
        {
          "internalType": "address",
          "name": "",
          "type": "address"
        }
      ],
      "stateMutability": "view",
      "type": "function"
    },
    {
      "inputs": [
        {
          "internalType": "address",
          "name": "from",
          "type": "address"
        },
        {
          "internalType": "address",
          "name": "to",
          "type": "address"
        },
        {
          "internalType": "uint256",
          "name": "tokenId",
          "type": "uint256"
        }
      ],
      "name": "safeTransferFrom",
      "outputs": [],
      "stateMutability": "nonpayable",
      "type": "function"
    },
    {
      "inputs": [
        {
          "internalType": "address",
          "name": "from",
          "type": "address"
        },
        {
          "internalType": "address",
          "name": "to",
          "type": "address"
        },
        {
          "internalType": "uint256",
          "name": "tokenId",
          "type": "uint256"
        },
        {
          "internalType": "bytes",
          "name": "data",
          "type": "bytes"
        }
      ],
      "name": "safeTransferFrom",
      "outputs": [],
      "stateMutability": "nonpayable",
      "type": "function"
    },
    {
      "inputs": [
        {
          "internalType": "address",
          "name": "operator",
          "type": "address"
        },
        {
          "internalType": "bool",
          "name": "approved",
          "type": "bool"
        }
      ],
      "name": "setApprovalForAll",
      "outputs": [],
      "stateMutability": "nonpayable",
      "type": "function"
    },
    {
      "inputs": [
        {
          "internalType": "bytes4",
          "name": "interfaceId",
          "type": "bytes4"
        }
      ],
      "name": "supportsInterface",
      "outputs": [
        {
          "internalType": "bool",
          "name": "",
          "type": "bool"
        }
      ],
      "stateMutability": "view",
      "type": "function"
    },
    {
      "inputs": [],
      "name": "symbol",
      "outputs": [
        {
          "internalType": "string",
          "name": "",
          "type": "string"
        }
      ],
      "stateMutability": "view",
      "type": "function"
    },
    {
      "inputs": [
        {
          "internalType": "uint256",
          "name": "",
          "type": "uint256"
        }
      ],
      "name": "tokenMetadata",
      "outputs": [
        {
          "internalType": "string",
          "name": "name",
          "type": "string"
        },
        {
          "internalType": "string",
          "name": "description",
          "type": "string"
        },
        {
          "internalType": "uint256",
          "name": "price",
          "type": "uint256"
        },
        {
          "internalType": "address",
          "name": "seller",
          "type": "address"
        },
        {
          "internalType": "string",
          "name": "imageURL",
          "type": "string"
        }
      ],
      "stateMutability": "view",
      "type": "function"
    },
    {
      "inputs": [
        {
          "internalType": "uint256",
          "name": "tokenId",
          "type": "uint256"
        }
      ],
      "name": "tokenURI",
      "outputs": [
        {
          "internalType": "string",
          "name": "",
          "type": "string"
        }
      ],
      "stateMutability": "view",
      "type": "function"
    },
    {
      "inputs": [
        {
          "internalType": "address",
          "name": "from",
          "type": "address"
        },
        {
          "internalType": "address",
          "name": "to",
          "type": "address"
        },
        {
          "internalType": "uint256",
          "name": "tokenId",
          "type": "uint256"
        }
      ],
      "name": "transferFrom",
      "outputs": [],
      "stateMutability": "nonpayable",
      "type": "function"
    },
    {
      "inputs": [
        {
          "internalType": "uint256",
          "name": "_listPrice",
          "type": "uint256"
        }
      ],
      "name": "updateListPrice",
      "outputs": [],
      "stateMutability": "payable",
      "type": "function"
    }
  ],
  "bytecode": "0x6080604052662386f26fc10000600a553480156200001c57600080fd5b50604080518082018252600e81526d4e46544d61726b6574706c61636560901b6020808301918252835180850190945260048452634e46544d60e01b9084015281519192916200006f91600091620000a0565b50805162000085906001906020840190620000a0565b5050600980546001600160a01b031916331790555062000183565b828054620000ae9062000146565b90600052602060002090601f016020900481019282620000d257600085556200011d565b82601f10620000ed57805160ff19168380011785556200011d565b828001600101855582156200011d579182015b828111156200011d57825182559160200191906001019062000100565b506200012b9291506200012f565b5090565b5b808211156200012b576000815560010162000130565b600181811c908216806200015b57607f821691505b602082108114156200017d57634e487b7160e01b600052602260045260246000fd5b50919050565b61230b80620001936000396000f3fe6080604052600436106101405760003560e01c80638e264590116100b6578063c87b56dd1161006f578063c87b56dd14610390578063d1a88ae5146103b0578063e0391b09146103c5578063e985e9c5146103da578063ef2d1746146103fa578063efbe8fd11461040f57600080fd5b80638e264590146102e857806395d89b41146103155780639b1225c41461032a578063a22cb4651461033d578063b88d4fde1461035d578063c322579c1461037d57600080fd5b806342842e0e1161010857806342842e0e14610216578063629cb2e4146102365780636352211e1461025857806368f1945f146102785780636914db601461029757806370a08231146102c857600080fd5b806301ffc9a71461014557806306fdde031461017a578063081812fc1461019c578063095ea7b3146101d457806323b872dd146101f6575b600080fd5b34801561015157600080fd5b50610165610160366004611e86565b610422565b60405190151581526020015b60405180910390f35b34801561018657600080fd5b5061018f610474565b6040516101719190612088565b3480156101a857600080fd5b506101bc6101b7366004611f4a565b610506565b6040516001600160a01b039091168152602001610171565b3480156101e057600080fd5b506101f46101ef366004611e5d565b61052d565b005b34801561020257600080fd5b506101f4610211366004611d6f565b610648565b34801561022257600080fd5b506101f4610231366004611d6f565b610679565b34801561024257600080fd5b5061024b610694565b604051610171919061203a565b34801561026457600080fd5b506101bc610273366004611f4a565b6108d9565b34801561028457600080fd5b50600a545b604051908152602001610171565b3480156102a357600080fd5b506102b76102b2366004611f4a565b610939565b60405161017195949392919061209b565b3480156102d457600080fd5b506102896102e3366004611d23565b610b0d565b3480156102f457600080fd5b50610308610303366004611f4a565b610b93565b6040516101719190612196565b34801561032157600080fd5b5061018f610bfd565b6101f4610338366004611f4a565b610c0c565b34801561034957600080fd5b506101f4610358366004611e23565b610d70565b34801561036957600080fd5b506101f4610378366004611daa565b610d7f565b6101f461038b366004611f4a565b610db1565b34801561039c57600080fd5b5061018f6103ab366004611f4a565b610e1c565b3480156103bc57600080fd5b50610308610f2d565b3480156103d157600080fd5b5061024b610fa4565b3480156103e657600080fd5b506101656103f5366004611d3d565b6110eb565b34801561040657600080fd5b50610289611119565b61028961041d366004611ebe565b611129565b60006001600160e01b031982166380ac58cd60e01b148061045357506001600160e01b03198216635b5e139f60e01b145b8061046e57506301ffc9a760e01b6001600160e01b03198316145b92915050565b60606000805461048390612213565b80601f01602080910402602001604051908101604052809291908181526020018280546104af90612213565b80156104fc5780601f106104d1576101008083540402835291602001916104fc565b820191906000526020600020905b8154815290600101906020018083116104df57829003601f168201915b5050505050905090565b600061051182611216565b506000908152600460205260409020546001600160a01b031690565b6000610538826108d9565b9050806001600160a01b0316836001600160a01b031614156105ab5760405162461bcd60e51b815260206004820152602160248201527f4552433732313a20617070726f76616c20746f2063757272656e74206f776e656044820152603960f91b60648201526084015b60405180910390fd5b336001600160a01b03821614806105c757506105c781336110eb565b6106395760405162461bcd60e51b815260206004820152603e60248201527f4552433732313a20617070726f76652063616c6c6572206973206e6f7420746f60448201527f6b656e206f776e6572206e6f7220617070726f76656420666f7220616c6c000060648201526084016105a2565b6106438383611278565b505050565b61065233826112e6565b61066e5760405162461bcd60e51b81526004016105a290612148565b610643838383611344565b61064383838360405180602001604052806000815250610d7f565b606060006106a160075490565b905060008060005b838110156107395733600b60006106c18460016121a4565b81526020810191909152604001600020600101546001600160a01b03161480610714575033600b60006106f58460016121a4565b81526020810191909152604001600020600201546001600160a01b0316145b15610727576107246001846121a4565b92505b806107318161224e565b9150506106a9565b5060008267ffffffffffffffff81111561076357634e487b7160e01b600052604160045260246000fd5b60405190808252806020026020018201604052801561079c57816020015b610789611bab565b8152602001906001900390816107815790505b50905060005b848110156108d05733600b60006107ba8460016121a4565b81526020810191909152604001600020600101546001600160a01b0316148061080d575033600b60006107ee8460016121a4565b81526020810191909152604001600020600201546001600160a01b0316145b156108be57600061081f8260016121a4565b6000818152600b6020908152604091829020825160a0810184528154815260018201546001600160a01b039081169382019390935260028201549092169282019290925260038201546060820152600482015460ff1615156080820152855192935090918590879081106108a357634e487b7160e01b600052603260045260246000fd5b60209081029190910101526108b96001866121a4565b945050505b806108c88161224e565b9150506107a2565b50949350505050565b6000818152600260205260408120546001600160a01b03168061046e5760405162461bcd60e51b8152602060048201526018602482015277115490cdcc8c4e881a5b9d985b1a59081d1bdad95b88125160421b60448201526064016105a2565b600c6020526000908152604090208054819061095490612213565b80601f016020809104026020016040519081016040528092919081815260200182805461098090612213565b80156109cd5780601f106109a2576101008083540402835291602001916109cd565b820191906000526020600020905b8154815290600101906020018083116109b057829003601f168201915b5050505050908060010180546109e290612213565b80601f0160208091040260200160405190810160405280929190818152602001828054610a0e90612213565b8015610a5b5780601f10610a3057610100808354040283529160200191610a5b565b820191906000526020600020905b815481529060010190602001808311610a3e57829003601f168201915b5050505060028301546003840154600485018054949592946001600160a01b03909216935090610a8a90612213565b80601f0160208091040260200160405190810160405280929190818152602001828054610ab690612213565b8015610b035780601f10610ad857610100808354040283529160200191610b03565b820191906000526020600020905b815481529060010190602001808311610ae657829003601f168201915b5050505050905085565b60006001600160a01b038216610b775760405162461bcd60e51b815260206004820152602960248201527f4552433732313a2061646472657373207a65726f206973206e6f7420612076616044820152683634b21037bbb732b960b91b60648201526084016105a2565b506001600160a01b031660009081526003602052604090205490565b610b9b611bab565b506000908152600b6020908152604091829020825160a0810184528154815260018201546001600160a01b03908116938201939093526002820154909216928201929092526003820154606082015260049091015460ff161515608082015290565b60606001805461048390612213565b6000818152600b6020526040902060038101546002909101546001600160a01b0316348214610ca5576040805162461bcd60e51b81526020600482015260248101919091527f506c65617365207375626d6974207468652061736b696e67207072696365206960448201527f6e206f7264657220746f20636f6d706c6574652074686520707572636861736560648201526084016105a2565b6000838152600b6020526040902060048101805460ff1916600117905560020180546001600160a01b03191633179055610ce3600880546001019055565b610cee303385611344565b610cf8308461052d565b600954600a546040516001600160a01b039092169181156108fc0291906000818181858888f19350505050158015610d34573d6000803e3d6000fd5b506040516001600160a01b038216903480156108fc02916000818181858888f19350505050158015610d6a573d6000803e3d6000fd5b50505050565b610d7b3383836114e0565b5050565b610d8933836112e6565b610da55760405162461bcd60e51b81526004016105a290612148565b610d6a848484846115af565b6009546001600160a01b03163314610e175760405162461bcd60e51b815260206004820152602360248201527f4f6e6c79206f776e65722063616e20757064617465206c697374696e6720707260448201526269636560e81b60648201526084016105a2565b600a55565b6060610e2782611216565b60008281526006602052604081208054610e4090612213565b80601f0160208091040260200160405190810160405280929190818152602001828054610e6c90612213565b8015610eb95780601f10610e8e57610100808354040283529160200191610eb9565b820191906000526020600020905b815481529060010190602001808311610e9c57829003601f168201915b505050505090506000610ed760408051602081019091526000815290565b9050805160001415610eea575092915050565b815115610f1c578082604051602001610f04929190611fce565b60405160208183030381529060405292505050919050565b610f25846115e2565b949350505050565b610f35611bab565b6000610f4060075490565b6000908152600b6020908152604091829020825160a0810184528154815260018201546001600160a01b03908116938201939093526002820154909216928201929092526003820154606082015260049091015460ff161515608082015292915050565b60606000610fb160075490565b905060008167ffffffffffffffff811115610fdc57634e487b7160e01b600052604160045260246000fd5b60405190808252806020026020018201604052801561101557816020015b611002611bab565b815260200190600190039081610ffa5790505b5090506000805b838110156110e25760006110318260016121a4565b6000818152600b6020908152604091829020825160a0810184528154815260018201546001600160a01b039081169382019390935260028201549092169282019290925260038201546060820152600482015460ff1615156080820152865192935090918690869081106110b557634e487b7160e01b600052603260045260246000fd5b60209081029190910101526110cb6001856121a4565b9350505080806110da9061224e565b91505061101c565b50909392505050565b6001600160a01b03918216600090815260056020908152604080832093909416825291909152205460ff1690565b600061112460075490565b905090565b6000611139600780546001019055565b600061114460075490565b90506111503382611656565b6040805160a0810182528781526020808201889052818301869052336060830152608082018790526000848152600c825292909220815180519293919261119a9284920190611bd9565b5060208281015180516111b39260018501920190611bd9565b506040820151600282015560608201516003820180546001600160a01b0319166001600160a01b03909216919091179055608082015180516111ff916004840191602090910190611bd9565b5090505061120d8184611670565b95945050505050565b6000818152600260205260409020546001600160a01b03166112755760405162461bcd60e51b8152602060048201526018602482015277115490cdcc8c4e881a5b9d985b1a59081d1bdad95b88125160421b60448201526064016105a2565b50565b600081815260046020526040902080546001600160a01b0319166001600160a01b03841690811790915581906112ad826108d9565b6001600160a01b03167f8c5be1e5ebec7d5bd14f71427d1e84f3dd0314c0f7b2291e5b200ac8c7c3b92560405160405180910390a45050565b6000806112f2836108d9565b9050806001600160a01b0316846001600160a01b03161480611319575061131981856110eb565b80610f255750836001600160a01b031661133284610506565b6001600160a01b031614949350505050565b826001600160a01b0316611357826108d9565b6001600160a01b0316146113bb5760405162461bcd60e51b815260206004820152602560248201527f4552433732313a207472616e736665722066726f6d20696e636f72726563742060448201526437bbb732b960d91b60648201526084016105a2565b6001600160a01b03821661141d5760405162461bcd60e51b8152602060048201526024808201527f4552433732313a207472616e7366657220746f20746865207a65726f206164646044820152637265737360e01b60648201526084016105a2565b611428600082611278565b6001600160a01b03831660009081526003602052604081208054600192906114519084906121d0565b90915550506001600160a01b038216600090815260036020526040812080546001929061147f9084906121a4565b909155505060008181526002602052604080822080546001600160a01b0319166001600160a01b0386811691821790925591518493918716917fddf252ad1be2c89b69c2b068fc378daa952ba7f163c4a11628f55a4df523b3ef91a4505050565b816001600160a01b0316836001600160a01b031614156115425760405162461bcd60e51b815260206004820152601960248201527f4552433732313a20617070726f766520746f2063616c6c65720000000000000060448201526064016105a2565b6001600160a01b03838116600081815260056020908152604080832094871680845294825291829020805460ff191686151590811790915591519182527f17307eab39ab6107e8899845ad3d59bd9653f200f220920489ca2b5937696c31910160405180910390a3505050565b6115ba848484611344565b6115c684848484611812565b610d6a5760405162461bcd60e51b81526004016105a2906120f6565b60606115ed82611216565b600061160460408051602081019091526000815290565b90506000815111611624576040518060200160405280600081525061164f565b8061162e8461191c565b60405160200161163f929190611fce565b6040516020818303038152906040525b9392505050565b610d7b828260405180602001604052806000815250611a36565b600a5434146116cd5760405162461bcd60e51b815260206004820152602360248201527f486f706566756c6c792073656e64696e672074686520636f727265637420707260448201526269636560e81b60648201526084016105a2565b600081116117285760405162461bcd60e51b815260206004820152602260248201527f4d616b652073757265207468652070726963652069736e2774206e6567617469604482015261766560f01b60648201526084016105a2565b6040805160a081018252838152306020808301828152338486018181526060860188815260016080880181815260008c8152600b9097529890952096518755925193860180546001600160a01b039586166001600160a01b03199182161790915590516002870180549190951691161790925551600384015592516004909201805492151560ff19909316929092179091556117c5919084611344565b604080513081523360208201529081018290526001606082015282907f9339409317fd01fabff48b703019016f49159bacc801ae872d2ca637d226e4c09060800160405180910390a25050565b60006001600160a01b0384163b1561191457604051630a85bd0160e11b81526001600160a01b0385169063150b7a0290611856903390899088908890600401611ffd565b602060405180830381600087803b15801561187057600080fd5b505af19250505080156118a0575060408051601f3d908101601f1916820190925261189d91810190611ea2565b60015b6118fa573d8080156118ce576040519150601f19603f3d011682016040523d82523d6000602084013e6118d3565b606091505b5080516118f25760405162461bcd60e51b81526004016105a2906120f6565b805181602001fd5b6001600160e01b031916630a85bd0160e11b149050610f25565b506001610f25565b6060816119405750506040805180820190915260018152600360fc1b602082015290565b8160005b811561196a57806119548161224e565b91506119639050600a836121bc565b9150611944565b60008167ffffffffffffffff81111561199357634e487b7160e01b600052604160045260246000fd5b6040519080825280601f01601f1916602001820160405280156119bd576020820181803683370190505b5090505b8415610f25576119d26001836121d0565b91506119df600a86612269565b6119ea9060306121a4565b60f81b818381518110611a0d57634e487b7160e01b600052603260045260246000fd5b60200101906001600160f81b031916908160001a905350611a2f600a866121bc565b94506119c1565b611a408383611a69565b611a4d6000848484611812565b6106435760405162461bcd60e51b81526004016105a2906120f6565b6001600160a01b038216611abf5760405162461bcd60e51b815260206004820181905260248201527f4552433732313a206d696e7420746f20746865207a65726f206164647265737360448201526064016105a2565b6000818152600260205260409020546001600160a01b031615611b245760405162461bcd60e51b815260206004820152601c60248201527f4552433732313a20746f6b656e20616c7265616479206d696e7465640000000060448201526064016105a2565b6001600160a01b0382166000908152600360205260408120805460019290611b4d9084906121a4565b909155505060008181526002602052604080822080546001600160a01b0319166001600160a01b03861690811790915590518392907fddf252ad1be2c89b69c2b068fc378daa952ba7f163c4a11628f55a4df523b3ef908290a45050565b6040805160a08101825260008082526020820181905291810182905260608101829052608081019190915290565b828054611be590612213565b90600052602060002090601f016020900481019282611c075760008555611c4d565b82601f10611c2057805160ff1916838001178555611c4d565b82800160010185558215611c4d579182015b82811115611c4d578251825591602001919060010190611c32565b50611c59929150611c5d565b5090565b5b80821115611c595760008155600101611c5e565b600067ffffffffffffffff80841115611c8d57611c8d6122a9565b604051601f8501601f19908116603f01168101908282118183101715611cb557611cb56122a9565b81604052809350858152868686011115611cce57600080fd5b858560208301376000602087830101525050509392505050565b80356001600160a01b0381168114611cff57600080fd5b919050565b600082601f830112611d14578081fd5b61164f83833560208501611c72565b600060208284031215611d34578081fd5b61164f82611ce8565b60008060408385031215611d4f578081fd5b611d5883611ce8565b9150611d6660208401611ce8565b90509250929050565b600080600060608486031215611d83578081fd5b611d8c84611ce8565b9250611d9a60208501611ce8565b9150604084013590509250925092565b60008060008060808587031215611dbf578081fd5b611dc885611ce8565b9350611dd660208601611ce8565b925060408501359150606085013567ffffffffffffffff811115611df8578182fd5b8501601f81018713611e08578182fd5b611e1787823560208401611c72565b91505092959194509250565b60008060408385031215611e35578182fd5b611e3e83611ce8565b915060208301358015158114611e52578182fd5b809150509250929050565b60008060408385031215611e6f578182fd5b611e7883611ce8565b946020939093013593505050565b600060208284031215611e97578081fd5b813561164f816122bf565b600060208284031215611eb3578081fd5b815161164f816122bf565b60008060008060808587031215611ed3578384fd5b843567ffffffffffffffff80821115611eea578586fd5b611ef688838901611d04565b95506020870135915080821115611f0b578485fd5b611f1788838901611d04565b94506040870135915080821115611f2c578384fd5b50611f3987828801611d04565b949793965093946060013593505050565b600060208284031215611f5b578081fd5b5035919050565b60008151808452611f7a8160208601602086016121e7565b601f01601f19169290920160200192915050565b805182526020808201516001600160a01b039081169184019190915260408083015190911690830152606080820151908301526080908101511515910152565b60008351611fe08184602088016121e7565b835190830190611ff48183602088016121e7565b01949350505050565b6001600160a01b038581168252841660208201526040810183905260806060820181905260009061203090830184611f62565b9695505050505050565b6020808252825182820181905260009190848201906040850190845b8181101561207c57612069838551611f8e565b9284019260a09290920191600101612056565b50909695505050505050565b60208152600061164f6020830184611f62565b60a0815260006120ae60a0830188611f62565b82810360208401526120c08188611f62565b604084018790526001600160a01b0386166060850152838103608085015290506120ea8185611f62565b98975050505050505050565b60208082526032908201527f4552433732313a207472616e7366657220746f206e6f6e20455243373231526560408201527131b2b4bb32b91034b6b83632b6b2b73a32b960711b606082015260800190565b6020808252602e908201527f4552433732313a2063616c6c6572206973206e6f7420746f6b656e206f776e6560408201526d1c881b9bdc88185c1c1c9bdd995960921b606082015260800190565b60a0810161046e8284611f8e565b600082198211156121b7576121b761227d565b500190565b6000826121cb576121cb612293565b500490565b6000828210156121e2576121e261227d565b500390565b60005b838110156122025781810151838201526020016121ea565b83811115610d6a5750506000910152565b600181811c9082168061222757607f821691505b6020821081141561224857634e487b7160e01b600052602260045260246000fd5b50919050565b60006000198214156122625761226261227d565b5060010190565b60008261227857612278612293565b500690565b634e487b7160e01b600052601160045260246000fd5b634e487b7160e01b600052601260045260246000fd5b634e487b7160e01b600052604160045260246000fd5b6001600160e01b03198116811461127557600080fdfea2646970667358221220fb7aa961554ca31e12b0bd0a5af055e9179f14738dac175e80daae80f2f26acb64736f6c63430008040033",
  "linkReferences": {},
  "deployedLinkReferences": {}
}